{
    "contractName": "KiralikEveDukkanSozlesmesi",
    "abi": [
        {
            "inputs": [
                {
                    "internalType": "string",
                    "name": "_kiralikYerTipi",
                    "type": "string"
                },
                {
                    "internalType": "address",
                    "name": "_kiraci",
                    "type": "address"
                },
                {
                    "internalType": "uint256",
                    "name": "_kiraBaslangicTarihi",
                    "type": "uint256"
                },
                {
                    "internalType": "uint256",
                    "name": "_kiraBitisTarihi",
                    "type": "uint256"
                }
            ],
            "stateMutability": "nonpayable",
            "type": "constructor"
        },
        {
            "inputs": [],
            "name": "hataliDurumBildir",
            "outputs": [],
            "stateMutability": "nonpayable",
            "type": "function"
        },
        {
            "inputs": [],
            "name": "kiraBaslangicTarihi",
            "outputs": [
                {
                    "internalType": "uint256",
                    "name": "",
                    "type": "uint256"
                }
            ],
            "stateMutability": "view",
            "type": "function"
        },
        {
            "inputs": [],
            "name": "kiraBitisTarihi",
            "outputs": [
                {
                    "internalType": "uint256",
                    "name": "",
                    "type": "uint256"
                }
            ],
            "stateMutability": "view",
            "type": "function"
        },
        {
            "inputs": [],
            "name": "kiraSonlandir",
            "outputs": [],
            "stateMutability": "nonpayable",
            "type": "function"
        },
        {
            "inputs": [],
            "name": "kiraci",
            "outputs": [
                {
                    "internalType": "address",
                    "name": "",
                    "type": "address"
                }
            ],
            "stateMutability": "view",
            "type": "function"
        },
        {
            "inputs": [],
            "name": "kiralikDurum",
            "outputs": [
                {
                    "internalType": "bool",
                    "name": "",
                    "type": "bool"
                }
            ],
            "stateMutability": "view",
            "type": "function"
        },
        {
            "inputs": [],
            "name": "kiralikYerTipi",
            "outputs": [
                {
                    "internalType": "string",
                    "name": "",
                    "type": "string"
                }
            ],
            "stateMutability": "view",
            "type": "function"
        },
        {
            "inputs": [],
            "name": "kirayaVer",
            "outputs": [],
            "stateMutability": "nonpayable",
            "type": "function"
        },
        {
            "inputs": [],
            "name": "sahip",
            "outputs": [
                {
                    "internalType": "address",
                    "name": "",
                    "type": "address"
                }
            ],
            "stateMutability": "view",
            "type": "function"
        }
    ],
    "bytecode": "608060405234801561001057600080fd5b5060405161070f38038061070f83398101604081905261002f916100ba565b600080546001600160a01b03191633179055600161004d858261022d565b50600280546001600160a01b0319166001600160a01b039490941693909317909255600355600455506005805460ff191660011790556102ec565b634e487b7160e01b600052604160045260246000fd5b80516001600160a01b03811681146100b557600080fd5b919050565b600080600080608085870312156100d057600080fd5b84516001600160401b03808211156100e757600080fd5b818701915087601f8301126100fb57600080fd5b81518181111561010d5761010d610088565b604051601f8201601f19908116603f0116810190838211818310171561013557610135610088565b81604052828152602093508a8484870101111561015157600080fd5b600091505b828210156101735784820184015181830185015290830190610156565b600084848301015280985050505061018c81880161009e565b60408801516060909801519699909850945050505050565b600181811c908216806101b857607f821691505b6020821081036101d857634e487b7160e01b600052602260045260246000fd5b50919050565b601f82111561022857600081815260208120601f850160051c810160208610156102055750805b601f850160051c820191505b8181101561022457828155600101610211565b5050505b505050565b81516001600160401b0381111561024657610246610088565b61025a8161025484546101a4565b846101de565b602080601f83116001811461028f57600084156102775750858301515b600019600386901b1c1916600185901b178555610224565b600085815260208120601f198616915b828110156102be5788860151825594840194600190910190840161029f565b50858210156102dc5787850151600019600388901b60f8161c191681555b5050505050600190811b01905550565b610414806102fb6000396000f3fe608060405234801561001057600080fd5b50600436106100935760003560e01c80638cb1ca19116100665780638cb1ca19146100fc578063b936ba9d14610104578063bf9f139514610121578063c02da08214610136578063c5232a231461013f57600080fd5b806319ea4324146100985780631f5e3969146100c85780636c3aab9e146100d25780638574cd14146100e9575b600080fd5b6002546100ab906001600160a01b031681565b6040516001600160a01b0390911681526020015b60405180910390f35b6100d0610147565b005b6100db60035481565b6040519081526020016100bf565b6000546100ab906001600160a01b031681565b6100d06101b9565b6005546101119060ff1681565b60405190151581526020016100bf565b610129610272565b6040516100bf9190610356565b6100db60045481565b6100d0610300565b6002546001600160a01b031633146101b75760405162461bcd60e51b815260206004820152602860248201527f536164656365206b697261636920686174616c6920647572756d2062696c64696044820152673932b134b634b91760c11b60648201526084015b60405180910390fd5b565b6000546001600160a01b0316331461020f5760405162461bcd60e51b815260206004820152601960248201527829b0b232b1b29039b0b434b81031b0b3b4b930b134b634b91760391b60448201526064016101ae565b60055460ff1615156001146102665760405162461bcd60e51b815260206004820152601b60248201527f4b69726120736f7a6c65736d65736920736f6e612065726d69732e000000000060448201526064016101ae565b6005805460ff19169055565b6001805461027f906103a4565b80601f01602080910402602001604051908101604052809291908181526020018280546102ab906103a4565b80156102f85780601f106102cd576101008083540402835291602001916102f8565b820191906000526020600020905b8154815290600101906020018083116102db57829003601f168201915b505050505081565b6000546001600160a01b031633146102665760405162461bcd60e51b815260206004820152601960248201527829b0b232b1b29039b0b434b81031b0b3b4b930b134b634b91760391b60448201526064016101ae565b600060208083528351808285015260005b8181101561038357858101830151858201604001528201610367565b506000604082860101526040601f19601f8301168501019250505092915050565b600181811c908216806103b857607f821691505b6020821081036103d857634e487b7160e01b600052602260045260246000fd5b5091905056fea26469706673582212208c19181dce117defbe775ef9fa562e5169a7de88611251379dc98bcf4f5491ee64736f6c63430008130033",
    "sourcePath": "c:/Users/altin/OneDrive/Masaüstü/akıllı sözleşme/kiralikec.sol",
    "compiler": {
        "name": "solc",
        "version": "0.8.19+commit.7dd6d404"
    },
    "functionHashes": {
        "hataliDurumBildir()": "1f5e3969",
        "kiraBaslangicTarihi()": "6c3aab9e",
        "kiraBitisTarihi()": "c02da082",
        "kiraSonlandir()": "c5232a23",
        "kiraci()": "19ea4324",
        "kiralikDurum()": "b936ba9d",
        "kiralikYerTipi()": "bf9f1395",
        "kirayaVer()": "8cb1ca19",
        "sahip()": "8574cd14"
    },
    "gasEstimates": {
        "creation": {
            "codeDepositCost": "208800",
            "executionCost": "infinite",
            "totalCost": "infinite"
        },
        "external": {
            "hataliDurumBildir()": "2427",
            "kiraBaslangicTarihi()": "2340",
            "kiraBitisTarihi()": "2361",
            "kiraSonlandir()": "26590",
            "kiraci()": "2327",
            "kiralikDurum()": "2332",
            "kiralikYerTipi()": "infinite",
            "kirayaVer()": "28637",
            "sahip()": "2393"
        }
    }
}